{
  "_format": "hh3-artifact-1",
  "contractName": "Voting",
  "sourceName": "contracts/Voting.sol",
  "abi": [
    {
      "inputs": [],
      "stateMutability": "nonpayable",
      "type": "constructor"
    },
    {
      "inputs": [
        {
          "internalType": "string",
          "name": "_name",
          "type": "string"
        }
      ],
      "name": "addCandidate",
      "outputs": [],
      "stateMutability": "nonpayable",
      "type": "function"
    },
    {
      "inputs": [
        {
          "internalType": "uint256",
          "name": "",
          "type": "uint256"
        }
      ],
      "name": "candidates",
      "outputs": [
        {
          "internalType": "uint256",
          "name": "id",
          "type": "uint256"
        },
        {
          "internalType": "string",
          "name": "name",
          "type": "string"
        },
        {
          "internalType": "uint256",
          "name": "voteCount",
          "type": "uint256"
        }
      ],
      "stateMutability": "view",
      "type": "function"
    },
    {
      "inputs": [],
      "name": "getCandidates",
      "outputs": [
        {
          "components": [
            {
              "internalType": "uint256",
              "name": "id",
              "type": "uint256"
            },
            {
              "internalType": "string",
              "name": "name",
              "type": "string"
            },
            {
              "internalType": "uint256",
              "name": "voteCount",
              "type": "uint256"
            }
          ],
          "internalType": "struct Voting.Candidate[]",
          "name": "",
          "type": "tuple[]"
        }
      ],
      "stateMutability": "view",
      "type": "function"
    },
    {
      "inputs": [],
      "name": "getWinner",
      "outputs": [
        {
          "components": [
            {
              "internalType": "uint256",
              "name": "id",
              "type": "uint256"
            },
            {
              "internalType": "string",
              "name": "name",
              "type": "string"
            },
            {
              "internalType": "uint256",
              "name": "voteCount",
              "type": "uint256"
            }
          ],
          "internalType": "struct Voting.Candidate",
          "name": "winner",
          "type": "tuple"
        }
      ],
      "stateMutability": "view",
      "type": "function"
    },
    {
      "inputs": [
        {
          "internalType": "address",
          "name": "",
          "type": "address"
        }
      ],
      "name": "hasVoted",
      "outputs": [
        {
          "internalType": "bool",
          "name": "",
          "type": "bool"
        }
      ],
      "stateMutability": "view",
      "type": "function"
    },
    {
      "inputs": [],
      "name": "owner",
      "outputs": [
        {
          "internalType": "address",
          "name": "",
          "type": "address"
        }
      ],
      "stateMutability": "view",
      "type": "function"
    },
    {
      "inputs": [
        {
          "internalType": "uint256",
          "name": "candidateId",
          "type": "uint256"
        }
      ],
      "name": "vote",
      "outputs": [],
      "stateMutability": "nonpayable",
      "type": "function"
    }
  ],
  "bytecode": "0x6080604052348015600e575f5ffd5b505f80546001600160a01b03191633179055610a2d8061002d5f395ff3fe608060405234801561000f575f5ffd5b506004361061007a575f3560e01c80633477ee2e116100585780633477ee2e146100e3578063462e91ec146101055780638da5cb5b146101185780638e7ea5b214610142575f5ffd5b80630121b93f1461007e57806306a49fce1461009357806309eef43e146100b1575b5f5ffd5b61009161008c366004610678565b610157565b005b61009b610241565b6040516100a891906106ef565b60405180910390f35b6100d36100bf366004610752565b60026020525f908152604090205460ff1681565b60405190151581526020016100a8565b6100f66100f1366004610678565b610340565b6040516100a89392919061077f565b6100916101133660046107bb565b6103fa565b5f5461012a906001600160a01b031681565b6040516001600160a01b0390911681526020016100a8565b61014a6104d9565b6040516100a8919061086e565b335f9081526002602052604090205460ff16156101ab5760405162461bcd60e51b815260206004820152600d60248201526c105b1c9958591e481d9bdd1959609a1b60448201526064015b60405180910390fd5b60015481106101f05760405162461bcd60e51b8152602060048201526011602482015270496e76616c69642063616e64696461746560781b60448201526064016101a2565b6001818154811061020357610203610880565b5f9182526020822060026003909202010180549161022083610894565b9091555050335f908152600260205260409020805460ff1916600117905550565b60606001805480602002602001604051908101604052809291908181526020015f905b82821015610337578382905f5260205f2090600302016040518060600160405290815f820154815260200160018201805461029e906108b8565b80601f01602080910402602001604051908101604052809291908181526020018280546102ca906108b8565b80156103155780601f106102ec57610100808354040283529160200191610315565b820191905f5260205f20905b8154815290600101906020018083116102f857829003601f168201915b5050505050815260200160028201548152505081526020019060010190610264565b50505050905090565b6001818154811061034f575f80fd5b5f9182526020909120600390910201805460018201805491935090610373906108b8565b80601f016020809104026020016040519081016040528092919081815260200182805461039f906108b8565b80156103ea5780601f106103c1576101008083540402835291602001916103ea565b820191905f5260205f20905b8154815290600101906020018083116103cd57829003601f168201915b5050505050908060020154905083565b5f546001600160a01b0316331461043f5760405162461bcd60e51b81526020600482015260096024820152682737ba1037bbb732b960b91b60448201526064016101a2565b6001805460408051606081018252828152602081018581525f9282018390528385018555939091528051600383027fb10e2d527612073b26eecdfd717e6a320cf44b4afac2b0732d9fcbe2b7fa0cf6810191825593519293919290917fb10e2d527612073b26eecdfd717e6a320cf44b4afac2b0732d9fcbe2b7fa0cf701906104c8908261093c565b506040820151816002015550505050565b6104fb60405180606001604052805f8152602001606081526020015f81525090565b60015461053a5760405162461bcd60e51b815260206004820152600d60248201526c4e6f2063616e6469646174657360981b60448201526064016101a2565b5f80805b6001548110156105a357826001828154811061055c5761055c610880565b905f5260205f20906003020160020154111561059b576001818154811061058557610585610880565b905f5260205f2090600302016002015492508091505b60010161053e565b50600181815481106105b7576105b7610880565b905f5260205f2090600302016040518060600160405290815f82015481526020016001820180546105e7906108b8565b80601f0160208091040260200160405190810160405280929190818152602001828054610613906108b8565b801561065e5780601f106106355761010080835404028352916020019161065e565b820191905f5260205f20905b81548152906001019060200180831161064157829003601f168201915b505050505081526020016002820154815250509250505090565b5f60208284031215610688575f5ffd5b5035919050565b5f81518084528060208401602086015e5f602082860101526020601f19601f83011685010191505092915050565b805182525f6020820151606060208501526106db606085018261068f565b604093840151949093019390935250919050565b5f602082016020835280845180835260408501915060408160051b8601019250602086015f5b8281101561074657603f198786030184526107318583516106bd565b94506020938401939190910190600101610715565b50929695505050505050565b5f60208284031215610762575f5ffd5b81356001600160a01b0381168114610778575f5ffd5b9392505050565b838152606060208201525f610797606083018561068f565b9050826040830152949350505050565b634e487b7160e01b5f52604160045260245ffd5b5f602082840312156107cb575f5ffd5b813567ffffffffffffffff8111156107e1575f5ffd5b8201601f810184136107f1575f5ffd5b803567ffffffffffffffff81111561080b5761080b6107a7565b604051601f8201601f19908116603f0116810167ffffffffffffffff8111828210171561083a5761083a6107a7565b604052818152828201602001861015610851575f5ffd5b816020840160208301375f91810160200191909152949350505050565b602081525f61077860208301846106bd565b634e487b7160e01b5f52603260045260245ffd5b5f600182016108b157634e487b7160e01b5f52601160045260245ffd5b5060010190565b600181811c908216806108cc57607f821691505b6020821081036108ea57634e487b7160e01b5f52602260045260245ffd5b50919050565b601f82111561093757805f5260205f20601f840160051c810160208510156109155750805b601f840160051c820191505b81811015610934575f8155600101610921565b50505b505050565b815167ffffffffffffffff811115610956576109566107a7565b61096a8161096484546108b8565b846108f0565b6020601f82116001811461099c575f83156109855750848201515b5f19600385901b1c1916600184901b178455610934565b5f84815260208120601f198516915b828110156109cb57878501518255602094850194600190920191016109ab565b50848210156109e857868401515f19600387901b60f8161c191681555b50505050600190811b0190555056fea2646970667358221220d7a32499b9050fef7b67df45131d66e01f283edd8ef8df4ee6fe737a1905f0ad64736f6c634300081c0033",
  "linkReferences": {},
  "deployedLinkReferences": {},
  "immutableReferences": {},
  "inputSourceName": "project/contracts/Voting.sol",
  "buildInfoId": "solc-0_8_28-4ebacaf9dbd6e2cc9503a8b528cbca8cfdc66604"
}